:020000040800F2
:100000000807002091010008311000088D0E00083B
:100010002D100008AF080008B31D00080000000004
:10002000000000000000000000000000F5110008C2
:10003000A10A000800000000A5100008E112000855
:10004000AB010008AB010008AB010008AB010008E0
:10005000AB010008AB010008AB010008AB010008D0
:10006000AB010008AB010008AB010008AB010008C0
:10007000AB010008AB010008AB010008AB010008B0
:10008000AB010008AB010008AB010008AB010008A0
:10009000AB010008AB010008AB010008AB01000890
:1000A000AB010008AB010008AB010008AB01000880
:1000B000451300088D130008AB010008AB010008D0
:1000C000AB010008AB010008AB010008AB01000860
:1000D000AB010008EF1B0008AB010008AB010008F2
:1000E000AB010008AB010008AB01000800F002F80A
:1000F00000F03FF80AA090E8000C82448344AAF183
:100100000107DA4501D100F034F8AFF2090EBAE880
:100110000F0013F0010F18BFFB1A43F0010318473B
:100120006C2000008C200000103A24BF78C878C1F1
:10013000FAD8520724BF30C830C144BF04680C60ED
:10014000704700000023002400250026103A28BF35
:1001500078C1FBD8520728BF30C148BF0B60704739
:10016000752900F04F80002070471FB51FBD10B5E6
:1001700010BD00F0E7F91146FFF7F7FF01F01CFE94
:1001800000F005FA03B4FFF7F2FF03BC00F00CFA2D
:100190000948804709480047FEE7FEE7FEE7FEE71B
:1001A000FEE7FEE7FEE7FEE7FEE7FEE70448054957
:1001B000054A064B70470000E5120008ED000008F4
:1001C0000801002008070020080300200803002081
:1001D0000FB41CB50C0007AA009001D02044401EAB
:1001E000074B7B4469460190069800F064F9002CA7
:1001F00003D06946002000F071F91CBC5DF814FBC7
:10020000010300002DE9F04106460024106875291D
:10021000314616A510D0AFF30080002802DA404224
:1002200013A507E031688A0701D512A502E0490746
:1002300004D511A5012401E0AFF3008000210A22BA
:1002400006F1240709E0B0FBF2FCB0FBF2F302FB7D
:100250001C00303078541846491C0028F3D123463E
:100260002A463046BDE8F04100F0C6B80000000064
:100270002D0000002B000000200000002DE9F041BF
:100280000F460546002028622846E968884770B373
:10029000252805D0D5E901219047286A401CF2E7BE
:1002A000E9682846002688476C2804460AD0682C4E
:1002B00008D04C2C35D06A2C31D0742C31D07A2C0B
:1002C0002FD016E0E968064628468847B042044623
:1002D00008D16C2E23D04FF480662846E968884701
:1002E000044606E06C2E03D04FF4807601E01EE059
:1002F0004026E4B1A4F14100192802D8203446F484
:1003000000663A46214628462E60FFF729FF60B175
:10031000012808D0FF1D27F007070837B4E780261B
:10032000DBE70026D9E73F1DAEE72046B2E7286AA3
:10033000BDE8F08130B505460B462A4613F8014B5F
:1003400012F8010B08B1A042F8D01CB1002802D06D
:100350006D1CF1E7284630BD4FF000020429C0F0C3
:10036000128010F0030C00F0C880CCF1040CBCF13A
:10037000020F18BF00F8012BA8BF20F8022BA1EB39
:100380000C0100F0BAB85FEAC17C24BF00F8012B71
:1003900000F8012B48BF00F8012B704710B5044648
:1003A00010F0030F08BF11F0030F40F015804FF05D
:1003B000013E121FC0F20E8051F8043BA3EB0E0C5D
:1003C0002CEA030C1CEACE1C08BF40F8043BF0D01A
:1003D000A1F1040102F10402521E08DB11F8013BF5
:1003E000002B00F8013BF7D11146FFF7B5FF20467F
:1003F00010BD7047704770472DE9F0470D4699468C
:100400009246044600F124080168880604D5E06994
:1004100021F01001216000E00120A84201DD471B0E
:1004200000E00027A1697A1902EB0900081AA0610F
:100430002078C00602D42046AFF30080002608E0F2
:10044000D4E901211AF806009047206A401C761C66
:1004500020624E45F4DB2078C0060AD52046AFF373
:10046000008006E0D4E9012130209047206A401C3A
:100470002062381EA7F10107F4DC07E0D4E901216E
:1004800018F805009047206A401C2062281EA5F13C
:100490000105F3DC2046AFF300802078000602D58A
:1004A0000220BDE8F0870120FBE7000001694A1C3B
:1004B00002610878704700B58FB0CDE901310021A5
:1004C000059105497944CDE9031011466846FFF7C7
:1004D000D5FE0FB000BD0000E5FFFFFF0A6802F87F
:1004E000010B0A607047D1E900239A4202D2531CE3
:1004F0000B60107070474FF0000200B51346944631
:100500009646203922BFA0E80C50A0E80C50B1F16B
:100510002001BFF4F7AF090728BFA0E80C5048BF7F
:100520000CC05DF804EB890028BF40F8042B08BF1D
:10053000704748BF20F8022B11F0804F18BF00F819
:10054000012B7047754600F02BF8AE460500694652
:10055000534620F00700854618B020B5FFF726FE69
:10056000BDE820404FF000064FF000074FF00008B4
:100570004FF0000B21F00701AC46ACE8C009ACE835
:10058000C009ACE8C009ACE8C0098D46704710B599
:100590000446AFF300802046BDE81040FFF7F2BDEF
:1005A00000487047A800002001491820ABBEFEE7B4
:1005B00026000200704721B1826842F00102826089
:1005C00003E0826822F001028260704721B18268F4
:1005D00042F48072826003E0826822F4807282605A
:1005E000704770B50024002504E000F085F804444D
:1005F000681CC5B2102DF8DBC4F30F1070BD0000ED
:1006000000B591B001214FF4017000F079FD012196
:10061000084600F055FD0120ADF8400000208DF89F
:10062000430010A9304800F05EFB304800F05CF950
:100630002F4800902F480190002002900120039045
:100640000020049005904FF4807006908000079081
:10065000002008904FF40050099000200A9069464D
:10066000224800F0FDF94FF4004000F01DFD00208D
:100670000B908DF830008DF831004FF460200D9014
:1006800000200E9001208DF83C000BA918484C3832
:1006900000F06CF805230122002115484C3800F0C9
:1006A0008DF8012112484C38FFF790FF01211048C6
:1006B0004C38FFF780FF0E484C3800F0DBF800BFE5
:1006C0000B484C3800F048F80028F9D108484C385D
:1006D00000F0E0F800BF06484C3800F033F800287E
:1006E000F9D111B000BD000000080140080002402F
:1006F0004C2401400000002010B500210E4800F0FD
:10070000E7F801210C4800F0C9F9022000F0D2F806
:100710000121094800F0DCF80121084800F0AFF899
:1007200000BF022000F086F90028FAD0022000F075
:10073000C1F80348008810BD0800024000240140B1
:1007400000000020014600208A6802F004020AB17D
:10075000012000E000207047014600208A6802F076
:1007600008020AB1012000E00020704730B50246BF
:100770000020002350680F4C20400D790C6844EA9B
:1007800005242043506090680B4C2040D1E902546E
:100790002C434D7944EA450420439060D06A20F40C
:1007A00070000C7C641EE4B2234340EA0350D06224
:1007B00030BD0000FFFEF0FFFDF7F1FFF0B504468D
:1007C0000D4600200021092D11DDE068A5F10A0683
:1007D00006EB4607072606FA07F18843A5F10A0645
:1007E00006EB460603FA06F10843E0600CE02069D8
:1007F00005EB4507072606FA07F1884305EB450692
:1008000003FA06F108432061072A0FDA606B561ECF
:1008100006EB86071F2606FA07F18843561E06EBED
:10082000860605FA06F10843606322E00D2A0FDA16
:10083000206BD61F06EB86071F2606FA07F18843B2
:10084000D61F06EB860605FA06F10843206310E082
:10085000E06AA2F10D0606EB86071F2606FA07F1ED
:100860008843A2F10D0606EB860605FA06F1084359
:10087000E062F0BD816841F008018160704721B1FC
:10088000826842F4A002826003E0826822F4A0023F
:1008900082607047816841F00401816070470246C0
:1008A0008A4201DD501A00E0881A80B2704700BF0A
:1008B000FEE7000000F0805111B10349086001E03B
:1008C00002494860704700000404024000000240F2
:1008D00021B1026842F00102026004E002684FF6B2
:1008E000FE731A400260704701684FF6FE721140B5
:1008F00001600021016041608160C1604B49884214
:1009000008D14A490839496841F00F01474A083A75
:1009100051608AE045491431884208D14349083979
:10092000496841F0F001414A083A51607DE03F4991
:100930002831884208D13D490839496841F470613D
:100940003A4A083A516070E038493C31884208D14F
:1009500036490839496841F47041344A083A5160CF
:1009600063E032495031884208D13049083949683A
:1009700041F470212D4A083A516056E02B49643108
:10098000884208D129490839496841F47001274A49
:10099000083A516049E025497831884208D1234915
:1009A0000839496841F07061204A083A51603CE0DA
:1009B0001F49884206D1011F096841F00F01021F3B
:1009C000116032E01A491431884208D11849091FD0
:1009D000096841F0F001164A121F116025E0144920
:1009E0002831884208D11249091F096841F4706111
:1009F0000F4A121F116018E00D493C31884208D19E
:100A00000B49091F096841F47041094A121F11601E
:100A10000BE007495031884207D10549091F096891
:100A200041F47021024A121F116070470800024011
:100A30000804024001460020002201F0805313B157
:100A4000054B1A6801E0054B1A6802EA01030BB175
:100A5000012000E000207047000402400000024036
:100A600010B50022026847F6F0739A430C6A8B684F
:100A700023430C6923434C6923438C692343CC698A
:100A800023434C6A23438C6A23431A430260CB6896
:100A900043600B6883604B68C36010BD4160704762
:100AA000704700000149C860704700000020024004
:100AB00030B5044604254FF4302000F001F9054616
:100AC000042D17D10C48006940F002000A49086162
:100AD00008464461006940F0400008614FF430204E
:100AE00000F0EEF805460448006941F6FD71084043
:100AF00001490861284630BD0020024004200B490E
:100B0000C96801F0010109B101200EE00749C96877
:100B100001F0040109B1022007E00449C96801F0AD
:100B2000100109B1032000E00420704700200240BA
:100B30000348006940F080000149086170470000E7
:100B40000020024010B500F0AFF83420FFF7AAFFF4
:100B50000548FFF7ADFFFFF7EBFF002003490880D2
:100B60000349088010BD000000FC000802000020BE
:100B700004000020014800887047000004000020A5
:100B800000220F4B1A800F4B1A8000200FE00E4BF3
:100B900003EB4002B2F8001C4FF6FF72914204D101
:100BA000074A1080074A10807047421C90B23228D2
:100BB000EDDB3222024B1A80024B1A8000BFF3E7B2
:100BC000020000200400002000F000080146322945
:100BD00002DB4FF6FF707047024A02EB4100B0F8AB
:100BE000000CF8E700F0000870B505461B480088C7
:100BF000322813DB00F058F83420FFF753FF184871
:100C0000FFF756FF0446FFF793FF042C01D00020A6
:100C100070BD002011490880124908800F480088E3
:100C20000F4901EB400600F03FF83420FFF73AFF90
:100C30002946304600F018F80446FFF779FF042CE7
:100C40000AD106480088401C0449088008460088EC
:100C5000044908800120DBE70020D9E702000020DA
:100C600000FC00080400002070B504460D46042670
:100C7000F00200F025F80646042E11D1094800695B
:100C800040F00100074908612580F00200F018F8E3
:100C900006460448006941F6FE71084001490861B2
:100CA000304670BD002002400248034948600348B6
:100CB000486070472301674500200240AB89EFCDB3
:100CC00000B502460423FFF719FF034603E0FFF7D0
:100CD00015FF0346521E012B01D1002AF7D102B99C
:100CE0000523184600BD2DE9F041024600250026E7
:100CF000002000230024002791F803C00CF00F050A
:100D000091F803C00CF0100CBCF1000F03D091F867
:100D100002C04CEA050591F800C0BCF1000F31D0CB
:100D2000146800202BE04FF0010C0CFA00F3B1F82E
:100D300000C00CEA03069E4220D183004FF00F0C46
:100D40000CFA03F7BC4305FA03FC4CEA040491F8DF
:100D500003C0BCF1280F06D14FF0010C0CFA00FCC7
:100D6000C2F814C00AE091F803C0BCF1480F05D1E5
:100D70004FF0010C0CFA00FCC2F810C0401C08280F
:100D8000D1D31460B1F800C0BCF1FF0F34DD54685A
:100D900000202EE000F1080C4FF0010808FA0CF3D7
:100DA000B1F800C00CEA03069E4221D183004FF047
:100DB0000F0C0CFA03F7BC4305FA03FC4CEA0404DD
:100DC00091F803C0BCF1280F05D100F1080C08FA16
:100DD0000CF8C2F8148091F803C0BCF1480F07D199
:100DE00000F1080C4FF0010808FA0CF8C2F8108066
:100DF000401C0828CED35460BDE8F081F0B50A4607
:100E0000002300240021002500F00046B6F1004F29
:100E100002D11D4EF16901E01B4E7168C0F303451C
:100E200083B200F44016B6F5401F08D121F070617E
:100E3000154E766826F07066134F7E6012E000F45F
:100E40008016B6F5801F06D1032606FA05F4A143E5
:100E500041F0706106E0460D360103FA06F6B14333
:100E600041F0706122B1460D360103FA06F63143B6
:100E700000F00046B6F1004F02D1034EF16101E0EF
:100E8000014E7160F0BD00000000014000BFFEE7B0
:100E900008B50121092000F033F901211448FFF7BA
:100EA000ADFF40F2FB10ADF8000010208DF80300FC
:100EB00003208DF8020069460E48FFF714FF4FF437
:100EC0007040ADF8000010208DF8030003208DF86D
:100ED000020069460748FFF706FF40F2FB1005498C
:100EE000143108604FF47040091F086008BD00000D
:100EF00000023000000C014010B500222A4B1B7884
:100F000003B910BD4FF47043284C236040F2FB132B
:100F1000241D2360264B274C2478195D0A2391FB5E
:100F2000F3F403FB1413244CE05C00F0030300F023
:100F3000F80443EA040200F004030BB142F48072A7
:100F40001A4B1A601B4B1B7833B1012B0AD0022BB2
:100F50000ED0032B18D111E04FF48053134C241DF5
:100F6000236012E04FF40053104C241D23600CE06A
:100F70004FF480430D4C241D236006E04FF40043E2
:100F80000A4C241D236000E000BF00BF094B1B7802
:100F90005B1C084C237023461B78042B01DB0023C9
:100FA000237000BFADE700000B000020100C0140D3
:100FB000060000200A000020C020000842F20F7145
:100FC000884200DD08464FF47A7190FBF1F10A2265
:100FD00091FBF2F302FB1311134A1170642190FB91
:100FE000F1F10A2291FBF2F302FB13110E4A517048
:100FF000642190FBF1F10A2291FBF2F302FB131141
:10100000094A91700A2190FBF1F10A2291FBF2F357
:1010100002FB1311044A91700A2190FBF1F201FBCB
:101020001201014AD17070470600002000BFFEE7A0
:101030007047000070B5002100230F22C47804B36C
:10104000154C246804F4E064C4F5E064210AC1F19D
:101050000403CA40447804FA03F18478144021431D
:1010600009010E4C0678A155047804F01F050124EF
:10107000AC4005786D11AD0005F1E025C5F80041E3
:1010800009E0047804F01F050124AC40044D067803
:10109000761145F8264070BD0CED00E000E400E05C
:1010A00080E100E07047000001460020034A5068DC
:1010B00020F4404008435060704700000010024098
:1010C00029B1064A52690243044B5A6104E0034ABB
:1010D00052698243014B5A61704700000010024080
:1010E00029B1064AD2690243044BDA6104E0034A9B
:1010F000D2698243014BDA61704700000010024060
:1011000029B1064A92690243044B9A6104E0034AFA
:1011100092698243014B9A617047000000100240BF
:1011200030B500210022002400232D4D6D6805F00C
:101130000C0121B1042905D0082923D105E0294D4E
:10114000056022E0274D05601FE0254D6D6805F420
:101150007012234D6D6805F48034022505EB924230
:101160001CB9214D554305600BE01D4D6D6805F41C
:1011700000351DB11C4D5543056002E0194D554326
:10118000056002E0174D056000BF00BF144D6D689B
:1011900005F0F0010909154D6B5C0568DD404560FF
:1011A0000F4D6D6805F4E061090A104D6B5C4568F0
:1011B000DD4085600A4D6D6805F46051C90A0B4D2C
:1011C0006B5C4568DD40C560054D6D6805F44041C8
:1011D000890B074D6B5CC568B5FBF3F5056130BD48
:1011E0000010024000127A0000093D0012000020A9
:1011F00022000020704710B500F002F810BD00007A
:101200000CB50020019000903348006840F4803015
:101210003149086000BF3048006800F40030009099
:101220000198401C0190009818B90198B0F5A06F82
:10123000F1D12948006800F4003010B1012000907D
:1012400001E0002000900098012843D12348006865
:1012500040F01000214908600846006820F00700AF
:1012600008600846006840F0020008601A484068BC
:10127000194948600846406848600846406840F49C
:10128000806048600846406820F47C10486008464A
:10129000406840F4E81048600846006840F08070FC
:1012A000086000BF0C48006800F000700028F9D00A
:1012B0000948406820F00300074948600846406834
:1012C00040F00200486000BF0348406800F00C0096
:1012D0000828F9D10CBD0000001002400020024097
:1012E0007047000010B51348006840F00100114934
:1012F000086008464068104908400E4948600846A2
:1013000000680E4908400B4908600846006820F450
:10131000802008600846406820F4FE0048604FF4D2
:101320001F008860FFF767FF4FF000600449086006
:1013300010BD0000001002400000FFF8FFFFF6FEA5
:1013400008ED00E010B500F001F810BD10B5012166
:10135000880700F043F898B10121880700F02FF8C2
:10136000FFF7CAFD07480088401C06490880084668
:101370000088642804DB00200880012002490870EE
:1013800010BD00000E0000200D00002010B500F080
:1013900001F810BD10B50121054800F01FF830B16B
:1013A0000121034800F00BF801200249087010BD2C
:1013B000000400400C000020CA4302827047CA4368
:1013C0000282704721B1028842F00102028004E0EB
:1013D00002884FF6FE731A400280704730B502460D
:1013E000002000230024158A05EA0103958905EAF7
:1013F000010413B10CB1012000E0002030BD1AB18E
:1014000083890B43838102E083898B438381704707
:10141000002202881D4B98420ED01D4B98420BD0E3
:10142000B0F1804F08D01B4B984205D01A4B984220
:1014300002D01A4B984204D14FF68F731A404B8852
:101440001A43174B984207D0164B984204D04FF6D8
:10145000FF431A40CB881A4302808B8883850B8810
:1014600003850A4B98420BD0094B984208D00E4B8B
:10147000984205D00D4B984202D00D4B984201D1B5
:101480000B7A03860123838270470000002C014001
:10149000003401400004004000080040000C0040FF
:1014A0000010004000140040004001400044014092
:1014B000004801401FB501210320FFF711FE40F253
:1014C000F310ADF808004720ADF804000020ADF897
:1014D0000A00ADF806008DF80C0001A94FF080401D
:1014E000FFF796FF01218807FFF766FF01221146EB
:1014F0009007FFF784FF1C208DF8000000208DF876
:1015000001008DF8020001208DF803006846FFF706
:1015100091FD01218807FFF755FF4CF24F30ADF8E0
:10152000080041F61F40ADF804000020ADF80A00A5
:10153000ADF806008DF80C0001A91048FFF768FF10
:1015400001210E48FFF738FF012211460B48FFF733
:1015500056FF1D208DF8000002208DF801000020AC
:101560008DF8020001208DF803006846FFF762FD48
:1015700001210248FFF726FF1FBD000000040040C4
:1015800010B540F22551254800F04EFB002844D00C
:10159000224800F005FCC4B20D2C01D00A2C0FD15A
:1015A0001F480078002837DD00201E491C4A1278A9
:1015B000885401201C4908700020194908702BE04C
:1015C000174800787F2827DA17480078002823D1A9
:1015D00013490878411C124A117012490C5400201A
:1015E0001278885411A10F48FEF7A4FE70B913A118
:1015F0000C48FEF79FFE48B913A10A48FEF79AFE71
:1016000020B914A10748FEF795FE28B1012006492C
:10161000087000200249087000BF10BD003801406A
:10162000100000202800002011000020494E464FE5
:101630005F52455155455354000000005245414406
:101640005F4C4F4753000000434C4541525F4C4FA5
:101650004753000048454C500000000010B586B0CC
:101660000446012144F20500FFF74AFD4FF40070E3
:10167000ADF8140018208DF8170003208DF816001F
:1016800005A91C48FFF72FFB4FF48060ADF814004C
:1016900004208DF8170005A91648FFF724FB0194D4
:1016A0000020ADF80800ADF80A00ADF80C00ADF868
:1016B00010000C20ADF80E0001A90F4800F004FB4B
:1016C000012240F225510C4800F0D8FA25208DF86F
:1016D000000001208DF801008DF802008DF8030054
:1016E0006846FFF7A7FC0121034800F084FA06B022
:1016F00010BD00000008014000380140F0B5A1B065
:101700004A48007808B921B0F0BD8022484901A8B4
:10171000FEF744FE00208DF88300444908708021C4
:101720004348FEF719FE43A101A8FEF703FE002877
:1017300018D044A000F050FA52A000F04DFA60A07A
:1017400000F04AFA6DA000F047FA73A000F044FAE6
:10175000814800F041FA814800F03EFA80A000F094
:101760003BFA60E08EA101A8FEF7E4FD002837D027
:10177000FFF700FA06468DA000F02EFA97A000F0C1
:101780002BFA304600F01AFA9AA000F025FA00244D
:1017900020E02046FFF71AFA05469BA000F01CFA4D
:1017A000601C00F00BFA9AA000F016FA284600F030
:1017B00005FA9AA000F010FA6420684340F6FF7121
:1017C000B0FBF1F7384600F0F9F995A000F004FA03
:1017D000601C84B2B442DCDB93A000F0FDF922E08F
:1017E0009DA101A8FEF7A6FD28B1FFF7ABF99DA0CA
:1017F00000F0F2F917E0ABA101A8FEF79BFD00286D
:1018000011D0AAA000F0E8F9B1A000F0E5F9BEA05F
:1018100000F0E2F9C9A000F0DFF9D6A000F0DCF991
:1018200084A000F0D9F900BF6DE70000110000208E
:1018300028000020494E464F5F52455155455354AC
:10184000000000000D0A3D3D3D3D3D3D3D3D3D3D1F
:101850003D3D3D3D3D3D3D3D3D3D3D3D3D3D3D3DB8
:101860003D3D3D3D3D3D3D3D3D3D3D3D3D3D3D3DA8
:101870003D3D3D3D3D3D3D3D3D3D3D3D3D3D0D0AFB
:1018800000000000202020202020202020202020D8
:101890002054484F4E472054494E20445520414E35
:1018A0002048452054484F4E472053544D33322052
:1018B00020202020202020202020200D0A000000B1
:1018C0003D3D3D3D3D3D3D3D3D3D3D3D3D3D3D3D48
:1018D0003D3D3D3D3D3D3D3D3D3D3D3D3D3D3D3D38
:1018E0003D3D3D3D3D3D3D3D3D3D3D3D3D3D3D3D28
:1018F0003D3D3D3D3D3D3D3D0D0A00002B204E61EF
:101900006D653A2043616F205472756F6E67204792
:1019100069616E670D0A00002B2050726F6A656363
:1019200074204E616D653A2044652037202D204398
:10193000616E682062616F206D756320616E682042
:1019400073616E672C20676869206C6F6720284C74
:101950004452290D0A000000CC2000082C21000868
:101960003D3D3D3D3D3D3D3D3D3D3D3D3D3D3D3DA7
:101970003D3D3D3D3D3D3D3D3D3D3D3D3D3D3D3D97
:101980003D3D3D3D3D3D3D3D3D3D3D3D3D3D3D3D87
:101990003D3D3D3D3D3D3D3D0D0A0D0A0000000031
:1019A000524541445F4C4F47530000000D0A2D2D16
:1019B0002D2044414E482053414348204C4F47205E
:1019C00054524F4E4720464C41534820285061679F
:1019D0006520363329202D2D2D0D0A00546F6E679A
:1019E00020736F206D6175206869656E20636F3AA2
:1019F00020000000202F203530206D617520746F8D
:101A0000692064610D0A00005B4D617520000000D3
:101A10005D20414443203D200000000020280000BC
:101A200025290D0A000000002D2D2D2D2D2D2D2DE9
:101A30002D2D2D2D2D2D2D2D2D2D2D2D2D2D2D2DD6
:101A40002D2D2D2D2D2D2D2D2D2D2D2D2D2D2D2DC6
:101A50002D2D2D0D0A0D0A00434C4541525F4C4F70
:101A6000475300000D0A5B464C4153485D204461DA
:101A700020786F61207472616E6720746F616E20D0
:101A8000626F2076756E67206E686F204C6F6720DE
:101A9000466C6173682050616765203633210D0AFA
:101AA0000D0A000048454C50000000000D0A2D2D85
:101AB0002D2044414E482053414348204C454E4838
:101AC0002048452054484F4E47202D2D2D0D0A000B
:101AD000312E20494E464F5F5245515545535420B3
:101AE0003A20596575206361752074686F6E6720B0
:101AF00074696E2073696E68207669656E20262091
:101B0000647520616E0D0A00322E20524541445FFB
:101B10004C4F4753202020203A20446F6320746F9D
:101B2000616E20626F206D6175206C6F672074722A
:101B30006F6E6720466C6173680D0A00332E204378
:101B40004C4541525F4C4F47532020203A20586F5C
:101B500061207472616E6720746F616E20626F2005
:101B6000626F206E686F206C6F6720466C617368CF
:101B70000D0A0000342E2048454C50202020202003
:101B8000202020203A2058656D2068756F6E6720F0
:101B900064616E206C656E680D0A000010B5044625
:101BA00000BF8021044800F032F80028F9D0214617
:101BB000014800F0FAF810BD003801403EB5044677
:101BC000234604A20C216846FEF702FB684600F09B
:101BD00003F83EBD256C750010B5044603E014F80B
:101BE000010BFFF7DBFF20780028F8D110BD10B5FE
:101BF000FFF7C6FC10BD21B1828942F400528281F8
:101C000004E082894DF6FF731A40828170470246D4
:101C10000020B1F5007F00D100BF13880B400BB14D
:101C2000012000E00020704770B502460024002328
:101C30000025002040F66A16B14200D100BFC1F372
:101C4000421501F01F03012606FA03F3012D02D10C
:101C50009689334006E0022D02D1168A334001E016
:101C6000968A33400C12012606FA04F41688344092
:101C700013B10CB1012000E0002070BDF0B50346A7
:101C8000002400260025002040F66A17B94200D142
:101C900000BF1846C1F3421401F01F06012707FADE
:101CA00006F5012C01D10C3004E0022C01D11030DA
:101CB00000E014301AB107682F43076002E007689C
:101CC000AF430760F0BD00002DE9F04786B0054640
:101CD0000E460024A24600BFA1460027B08900B1ED
:101CE00000BF2F462C8A4CF6FF700440F088044356
:101CF0002C82AC894EF6F3100440B0883189084339
:101D0000718908430443AC81AC8A4FF6FF4004401C
:101D1000B0890443AC8201A8FFF702FA1F4887424A
:101D200002D1DDF810A001E0DDF80CA0A88900F4D4
:101D3000004040B10AEBCA0000EB0A1031684900CC
:101D4000B0FBF1F807E00AEBCA0000EB0A103168BB
:101D50008900B0FBF1F86420B8FBF0F00401200921
:101D6000642101FB1089A88900F4004040B13220B1
:101D700000EBC900B0FBF1F000F00700044308E0FD
:101D8000322000EB09106421B0FBF1F000F00F00ED
:101D900004432C8106B0BDE8F08700000038014004
:101DA00001468888C0F308007047C1F308028280AA
:101DB000704700BFFEE7000000244FF6FF7500BF2C
:101DC000FFF790FAFFF764F8FEF71AFCFEF7D8FE6B
:101DD0004FF41650FFF742FCFFF76CFB34A0FFF7FF
:101DE000FBFE43A0FFF7F8FE50A0FFF7F5FE5EA054
:101DF000FFF7F2FE68A0FFF7EFFEFEF7BBFE064618
:101E0000FFF7DCFE70A0FFF7E7FE74A0FFF7E4FE2B
:101E100081A0FFF7E1FE4AE08F480078C0B10020C2
:101E20008D490870FEF7DDFB044629462046FEF783
:101E300036FD042808DA3CB140F6FF70844203D036
:101E40004FF6FF70854203D12046FFF7B7F82546CD
:101E500082480078002828D0002080490870204659
:101E6000FEF7C2FEF0B1FEF785FE07467CA0FFF745
:101E7000B3FE3846FFF7A2FE7DA0FFF7ADFE204679
:101E8000FFF79CFE80A0FFF7A7FE6420604340F6AA
:101E9000FF71B0FBF1F63046FFF790FE7BA0FFF735
:101EA0009BFE02E07BA0FFF797FEFFF727FCB3E75E
:101EB0000D0A3D3D3D3D3D3D3D3D3D3D3D3D3D3DB5
:101EC0003D3D3D3D3D3D3D3D3D3D3D3D3D3D3D3D42
:101ED0003D3D3D3D3D3D3D3D3D3D3D3D3D3D3D3D32
:101EE0003D3D3D3D3D3D3D3D3D3D0D0A0000000079
:101EF0002020202048452054484F4E4720444F2062
:101F00004D554320414E482053414E4720262047FF
:101F10004849204C4F4720464C41534820285354B1
:101F20004D333229202020200D0A00003D3D3D3D4B
:101F30003D3D3D3D3D3D3D3D3D3D3D3D3D3D3D3DD1
:101F40003D3D3D3D3D3D3D3D3D3D3D3D3D3D3D3DC1
:101F50003D3D3D3D3D3D3D3D3D3D3D3D3D3D3D3DB1
:101F60003D3D3D3D0D0A00005B5354415455535DCA
:101F70002048652074686F6E67206461206B686F0D
:101F80006920646F6E67207468616E6820636F6E8D
:101F900067210D0A000000005B464C4153485D205C
:101FA00020536F206D6175206C6F67206869656EC6
:101FB000207461692074726F6E67205061676520BC
:101FC00036333A2000000000202F203530206D618C
:101FD0007520746F692064610D0A00005B554152E1
:101FE000545D20202053616E2073616E67206E68FF
:101FF000616E206C656E682027494E464F5F5245E2
:1020000051554553542720686F6163202748454C3C
:1020100050270D0A000000003D3D3D3D3D3D3D3D4A
:102020003D3D3D3D3D3D3D3D3D3D3D3D3D3D3D3DE0
:102030003D3D3D3D3D3D3D3D3D3D3D3D3D3D3D3DD0
:102040003D3D3D3D3D3D3D3D3D3D3D3D3D3D3D3DC0
:102050000D0A0D0A000000000D0000200C000020F9
:102060005B4C4F472035735D204D617520000000AB
:102070002F3530202D3E20466C6173683A20414454
:1020800043203D20000000002028000025290D0AE3
:10209000000000005B4552524F525D2047686920A6
:1020A0006475206C6965752076616F20466C61737C
:1020B00068207468617420626169210D0A00000063
:1020C0003F065B4F666D7D077F6F00002B204861E8
:1020D00072647761726520557365643A2053544D7C
:1020E000333246313033433854362C204269656EE2
:1020F0002074726F2F4C44522C204C4544203720C2
:10210000646F616E203420736F2035363431415353
:102110002C204D6F64756C65204348333430205556
:1021200053422D54544C0D0A000000002B20536FD5
:1021300066747761726520557365643A204B6569F2
:102140006C204D444B2D41524D2076352C2053545C
:102150004D333246313078205374616E646172645D
:10216000205065726970686572616C204C6962729A
:102170006172792C2048657263756C6573205465B3
:10218000726D696E616C0D0A00000000AC210008E0
:10219000000000202800000028010008D4210008C9
:1021A00028000020E00600004401000800000000B4
:1021B000000000000000000100000000000000001E
:1021C00000000102030401020304060708090204D7
:0421D00006080000FD
:04000005080000ED02
:00000001FF
